{
  "_format": "hh-sol-artifact-1",
  "contractName": "TabascoVault",
  "sourceName": "contracts/tabascoVault.sol",
  "abi": [
    {
      "anonymous": false,
      "inputs": [],
      "name": "CancelDeposit",
      "type": "event"
    },
    {
      "anonymous": false,
      "inputs": [],
      "name": "CancelWithdrawal",
      "type": "event"
    },
    {
      "anonymous": false,
      "inputs": [],
      "name": "Deposit",
      "type": "event"
    },
    {
      "anonymous": false,
      "inputs": [],
      "name": "Withdrawal",
      "type": "event"
    },
    {
      "inputs": [
        {
          "internalType": "uint256",
          "name": "_vaultId",
          "type": "uint256"
        },
        {
          "internalType": "uint256",
          "name": "_amount",
          "type": "uint256"
        }
      ],
      "name": "deposit",
      "outputs": [],
      "stateMutability": "view",
      "type": "function"
    },
    {
      "inputs": [
        {
          "internalType": "address",
          "name": "",
          "type": "address"
        }
      ],
      "name": "depositAmount",
      "outputs": [
        {
          "internalType": "uint256",
          "name": "",
          "type": "uint256"
        }
      ],
      "stateMutability": "view",
      "type": "function"
    },
    {
      "inputs": [
        {
          "internalType": "uint256",
          "name": "",
          "type": "uint256"
        }
      ],
      "name": "vaultCreated",
      "outputs": [
        {
          "internalType": "bool",
          "name": "",
          "type": "bool"
        }
      ],
      "stateMutability": "view",
      "type": "function"
    }
  ],
  "bytecode": "0x608060405234801561001057600080fd5b50610479806100206000396000f3fe608060405234801561001057600080fd5b50600436106100415760003560e01c806350f62da7146100465780635ad2567614610076578063e2bbb158146100a6575b600080fd5b610060600480360381019061005b9190610204565b6100c2565b60405161006d919061024a565b60405180910390f35b610090600480360381019061008b9190610291565b6100da565b60405161009d91906102d9565b60405180910390f35b6100c060048036038101906100bb91906102f4565b6100fa565b005b60006020528060005260406000206000915090505481565b60016020528060005260406000206000915054906101000a900460ff1681565b6000811161013d576040517f08c379a0000000000000000000000000000000000000000000000000000000008152600401610134906103b7565b60405180910390fd5b6001600083815260200190815260200160002060009054906101000a900460ff1661019d576040517f08c379a000000000000000000000000000000000000000000000000000000000815260040161019490610423565b60405180910390fd5b5050565b600080fd5b600073ffffffffffffffffffffffffffffffffffffffff82169050919050565b60006101d1826101a6565b9050919050565b6101e1816101c6565b81146101ec57600080fd5b50565b6000813590506101fe816101d8565b92915050565b60006020828403121561021a576102196101a1565b5b6000610228848285016101ef565b91505092915050565b6000819050919050565b61024481610231565b82525050565b600060208201905061025f600083018461023b565b92915050565b61026e81610231565b811461027957600080fd5b50565b60008135905061028b81610265565b92915050565b6000602082840312156102a7576102a66101a1565b5b60006102b58482850161027c565b91505092915050565b60008115159050919050565b6102d3816102be565b82525050565b60006020820190506102ee60008301846102ca565b92915050565b6000806040838503121561030b5761030a6101a1565b5b60006103198582860161027c565b925050602061032a8582860161027c565b9150509250929050565b600082825260208201905092915050565b7f4465706f73697420616d6f756e742073686f756c64206265206772656174657260008201527f207468616e203000000000000000000000000000000000000000000000000000602082015250565b60006103a1602783610334565b91506103ac82610345565b604082019050919050565b600060208201905081810360008301526103d081610394565b9050919050565b7f5661756c74206e6f742063726561746564000000000000000000000000000000600082015250565b600061040d601183610334565b9150610418826103d7565b602082019050919050565b6000602082019050818103600083015261043c81610400565b905091905056fea26469706673582212200bd4a98349422b1aad47bdd3b3ec5ac1b500778e2a61bfef88b52035afa7e9c664736f6c634300080d0033",
  "linkReferences": {},
  "deployedLinkReferences": {}
}